:100000000C94FD020C9425030C9425030C942503F9
:100010000C9425030C9425030C9425030C942503C0
:100020000C9425030C9425030C9425030C942503B0
:100030000C9425030C9425030C9425030C942503A0
:100040000C94B6050C9425030C944F040C942904CD
:100050000C9425030C9425030C9425030C94250380
:100060000C9425030C9425030000000024002700B5
:100070002A00010204081020408001020408102018
:10008000010204081020040404040404040402020D
:100090000202020203030303030353595354454D61
:1000A0002048414C5445443A20436865636B2063C3
:1000B0006F6E6E656374696F6E732E005741524E9A
:1000C000494E473A20436F6D6D756E69636174697F
:1000D0006F6E206661696C7572652C20697320747F
:1000E0006865204D4652433532322070726F70651C
:1000F000726C7920636F6E6E65637465643F002077
:1001000028756E6B6E6F776E292C70726F626162EC
:100110006C792061206368696E65736520636C6F1C
:100120006E653F00203D2076322E3000203D207647
:10013000312E30004D46524335323220536F6674B3
:10014000776172652056657273696F6E3A203078F8
:100150000057616974696E67205049434373207486
:100160006F206265207363616E6E6564004576651D
:1001700072797468696E67205265616479002D2D0B
:100180002D2D2D2D2D2D2D2D2D2D2D2D2D2D2D2D9F
:100190002D004D6173746572204361726427732072
:1001A000554944002D2D2D2D2D2D2D2D2D2D2D2D51
:1001B0002D2D2D2D2D2D2D004D6173746572204335
:1001C00061726420446566696E6564005363616EA4
:1001D0002041205049434320746F20446566696E76
:1001E00065206173204D6173746572204361726490
:1001F000004E6F204D6173746572204361726420FC
:10020000446566696E656400576970696E6720436E
:10021000616E63656C6C656400454550524F4D20BE
:100220005375636365737366756C6C792057697079
:100230006564005374617274696E672057697069F0
:100240006E6720454550524F4D00546869732077C2
:10025000696C6C2062652072656D6F766520616CDB
:100260006C207265636F72647320616E64206361D9
:100270006E6E6F7420626520756E646F6E650059D6
:100280006F752068617665203135207365636F6E08
:10029000647320746F2043616E63656C00576970EE
:1002A0006520427574746F6E205072657373656457
:1002B0000041636365737320436F6E74726F6C20CB
:1002C00076332E340053756363657366756C6C7991
:1002D0002072656D6F766564204944207265636F96
:1002E00072642066726F6D20454550524F4D004636
:1002F00061696C65642120546865726520697320AA
:10030000736F6D657468696E672077726F6E6720B2
:1003100077697468204944206F72206261642045C7
:100320004550524F4D0053756363657366756C6C31
:1003300079206164646564204944207265636F724A
:100340006420746F20454550524F4D004661696CE2
:1003500065642120546865726520697320736F6D30
:10036000657468696E672077726F6E67207769744D
:1003700068204944206F72206261642045455052D4
:100380004F4D00596F75207368616C6C206E6F74EF
:1003900020706173730057656C636F6D652C205915
:1003A0006F75207368616C6C2070617373002D2D04
:1003B0002D2D2D2D2D2D2D2D2D2D2D2D2D2D2D2D6D
:1003C0002D2D2D2D2D2D2D2D2D2D2D005363616EB9
:1003D000204D6173746572204361726420616761AE
:1003E000696E20746F20457869742050726F67724F
:1003F000616D204D6F6465005363616E2061205014
:1004000049434320746F20414444206F7220524579
:100410004D4F564520746F20454550524F4D00209A
:100420007265636F7264287329206F6E2045455092
:10043000524F4D00492068617665200048656C6C1C
:100440006F204D6173746572202D20456E74657246
:1004500065642050726F6772616D204D6F64650036
:100460005363616E2061205049434320746F2041E3
:100470004444206F722052454D4F564520746F20E2
:10048000454550524F4D002D2D2D2D2D2D2D2D2D0F
:100490002D2D2D2D2D2D2D2D2D2D2D2D2D2D2D2D8C
:1004A0002D2D2D2D004920646F206E6F74206B6EF2
:1004B0006F77207468697320504943432C2061642E
:1004C00064696E672E2E2E005363616E206120508A
:1004D00049434320746F20414444206F72205245A9
:1004E0004D4F564520746F20454550524F4D0049A1
:1004F000206B6E6F77207468697320504943432CDA
:100500002072656D6F76696E672E2E2E002D2D2D53
:100510002D2D2D2D2D2D2D2D2D2D2D2D2D2D2D2D0B
:100520002D2D2D2D2D2D2D2D2D2D00457869746906
:100530006E672050726F6772616D204D6F64650049
:100540004D61737465722043617264205363616E00
:100550006E656400526573746172742064657669B7
:10056000636520746F2072652D70726F6772616DA4
:10057000204D61737465722043617264004D617334
:1005800074657220436172642077696C6C206265C7
:10059000204572617365642120696E2031302073BB
:1005A00065636F6E6473005769706520427574747B
:1005B0006F6E2050726573736564005363616E6E75
:1005C000656420504943432773205549443A00004D
:1005D000000000250028002B00000000002300265A
:1005E00000290000000008000201000003040700C9
:1005F0000000000000000000461011241FBECFEFD5
:10060000D8E0DEBFCDBF11E0A0E0B1E0E2E9F1E269
:1006100002C005900D92AE33B107D9F722E0AEE3E8
:10062000B1E001C01D92AA30B207E1F712E0CDEFB0
:10063000D2E004C02197FE010E94BC10CC3FD1073C
:10064000C9F70E94BA0B0C94C7100C940000CF920B
:10065000DF92EF92FF920F931F93CF93DF936C0182
:100660007A018B01C0E0D0E0CE15DF0589F0D8011A
:100670006D918D01D601ED91FC910190F081E02DFD
:10068000C6010995892B11F47E0102C02196ECCF99
:10069000C701DF91CF911F910F91FF90EF90DF90F5
:1006A000CF900895089580E090E00895FC01538D67
:1006B000448D252F30E0842F90E0821B930B54173C
:1006C00010F0CF96089501970895FC01918D828DC9
:1006D000981761F0828DDF01A80FB11D5D968C9196
:1006E000928D9F5F9F73928F90E008958FEF9FEFA1
:1006F0000895FC01918D828D981731F0828DE80F5D
:10070000F11D858D90E008958FEF9FEF0895FC0116
:10071000918D228D892F90E0805C9F4F821B9109E3
:100720008F739927089587E591E00E94870321E060
:10073000892B09F420E0822F0895FC01848DDF01CC
:10074000A80FB11DA35ABF4F2C91848D90E0019644
:100750008F739927848FA689B7892C93A089B18933
:100760008C9180648C93938D848D981306C002883D
:10077000F389E02D80818F7D80830895EF92FF9231
:100780000F931F93CF93DF93EC0181E0888F9B8DB4
:100790008C8D981305C0E889F989808185FD24C076
:1007A000F62E0B8D10E00F5F1F4F0F731127E02EF9
:1007B0008C8DE8120CC00FB607FCFACFE889F989D6
:1007C000808185FFF5CFCE010E949D03F1CF8B8DF7
:1007D000FE01E80FF11DE35AFF4FF0820B8FEA890B
:1007E000FB898081806207C0EE89FF896083E88988
:1007F000F98980818064808381E090E0DF91CF91EE
:100800001F910F91FF90EF900895CF93DF93EC012C
:10081000888D8823C9F0EA89FB89808185FD05C020
:10082000A889B9898C9186FD0FC00FB607FCF5CF5A
:10083000808185FFF2CFA889B9898C9185FFEDCFA2
:10084000CE010E949D03E7CFDF91CF9108950E94D2
:10085000C2101F920F920FB60F9211242F933F9345
:100860004F935F936F937F938F939F93AF93BF93B8
:10087000EF93FF9387E591E00E949D03FF91EF9135
:10088000BF91AF919F918F917F916F915F914F91A8
:100890003F912F910F900FBE0F901F9018951F92B0
:1008A0000F920FB60F9211242F938F939F93EF9374
:1008B000FF93E0916701F09168018081E0916D0103
:1008C000F0916E0182FD12C09081809170018F5F66
:1008D0008F7320917101821751F0E0917001F0E067
:1008E000E95AFE4F958F8093700101C08081FF917E
:1008F000EF919F918F912F910F900FBE0F901F90AE
:10090000189580E090E0892B29F00E9493038111D3
:100910000C9400000895833081F028F4813099F020
:100920008230A1F008958730A9F08830B9F0843082
:10093000D1F4809180008F7D03C0809180008F77FB
:1009400080938000089584B58F7702C084B58F7D31
:1009500084BD08958091B0008F7703C08091B0006E
:100960008F7D8093B00008953FB7F89480914B013C
:1009700090914C01A0914D01B0914E0126B5A89BDC
:1009800005C02F3F19F00196A11DB11D3FBFBA2F21
:10099000A92F982F8827820F911DA11DB11DBC0181
:1009A000CD0142E0660F771F881F991F4A95D1F746
:1009B0000895DC01ED91FD91BD010190F081E02DE4
:1009C00040E0099591E0811190E0892F0895CF933F
:1009D000DF93282F30E0F901ED51FA4F8491F901AE
:1009E000EE58FF4FD491F901EA57FF4FC491CC2341
:1009F00091F081110E948B04EC2FF0E0EE0FFF1FAD
:100A0000E752FA4FA591B491EC91ED2381E090E08B
:100A100021F480E002C080E090E0DF91CF91089562
:100A20001F93CF93DF93282F30E0F901ED51FA4F58
:100A30008491F901EE58FF4FD491F901EA57FF4F25
:100A4000C491CC23C9F0162F81110E948B04EC2F86
:100A5000F0E0EE0FFF1FE153FA4FA591B4918FB76D
:100A6000F894111105C09C91ED2FE095E92302C087
:100A7000EC91ED2BEC938FBFDF91CF911F910895F7
:100A8000CF93DF9390E0FC01EE58FF4F2491FC01DF
:100A9000EA57FF4F8491882361F190E0880F991FF6
:100AA000FC01E859FF4FC591D491FC01E153FA4F85
:100AB000A591B491611109C09FB7F89488812095E0
:100AC00082238883EC912E230BC0623061F49FB7A0
:100AD000F8943881822F809583238883EC912E2B84
:100AE0002C939FBF06C08FB7F894E8812E2B2883E4
:100AF0008FBFDF91CF9108958F929F92AF92BF9257
:100B0000CF92DF92EF92FF926B017C010E94B404BE
:100B10004B015C01C114D104E104F104F1F00E9425
:100B2000B404DC01CB0188199909AA09BB09883EE4
:100B30009340A105B10570F321E0C21AD108E10884
:100B4000F10888EE880E83E0981EA11CB11CC11428
:100B5000D104E104F10419F7DDCFFF90EF90DF90AD
:100B6000CF90BF90AF909F908F9008951F920F925B
:100B70000FB60F9211242F933F938F939F93AF93B0
:100B8000BF938091470190914801A0914901B09194
:100B90004A013091460123E0230F2D3720F40196BE
:100BA000A11DB11D05C026E8230F0296A11DB11D90
:100BB000209346018093470190934801A0934901F7
:100BC000B0934A0180914B0190914C01A0914D014D
:100BD000B0914E010196A11DB11D80934B019093E0
:100BE0004C01A0934D01B0934E01BF91AF919F91E5
:100BF0008F913F912F910F900FBE0F901F901895DE
:100C000008958EBD00000DB407FEFDCF8EB508958A
:100C10008CBD9DBD08951F93CF93DF93EC01162FDC
:100C20008A899B890E94080660E08E850E941005D3
:100C3000812F80680E94010680E00E940106182F23
:100C400061E08E850E941005812FDF91CF911F9169
:100C50000895EF92FF921F93CF93DF931F92CDB72A
:100C6000DEB77C01162FFC018289938949830E949B
:100C7000080660E0F70186850E941005812F0E941A
:100C800001064981842F0E94010661E0F7018685F3
:100C90000F90DF91CF911F91FF90EF900C94100572
:100CA0008F929F92AF92CF92EF92FF920F931F93EA
:100CB000CF93DF9300D000D01F92CDB7DEB74C01A9
:100CC00082E08D8340E064E2C4010E94290640E096
:100CD00066E2C4010E94290646E268E4C4010E945B
:100CE000290686E28C838D81823040F16CE1C4015B
:100CF0000E940B06482F4F776CE1C4010E94290621
:100D000087E08B83A12CC12CCE0103967C018E0140
:100D10000B5F1F4F9E012F5F3F4F41E0BE016C5F95
:100D20007F4FC4010E946F0A81110BC08D818230F8
:100D300039F481E09B81911104C008C084E001C0B6
:100D400081E091E0823019F090E001C091E0892FBC
:100D50000F900F900F900F900F90DF91CF911F91F8
:100D60000F91FF90EF90CF90AF909F908F9008954C
:100D7000CF92DF92EF92FF920F931F93CF93DF9367
:100D8000EC016B01142F790140E062E00E9429061A
:100D900044E06AE0CE010E94290640E864E1CE0109
:100DA0000E942906A601612FCE010E94330A43E06A
:100DB00062E0CE010E94290608E813E16AE0CE0154
:100DC0000E940B0682FF13C040E062E0CE010E9449
:100DD000290664E4CE010E940B06F701808362E4D9
:100DE000CE010E940B06F701818380E004C0015010
:100DF000110921F783E0DF91CF911F910F91FF90AF
:100E0000EF90DF90CF9008952F923F924F925F9294
:100E10006F927F928F929F92AF92BF92CF92DF920A
:100E2000EF92FF920F931F93CF93DF93CDB7DEB76F
:100E30002D970FB6F894DEBF0FBECDBF413508F039
:100E40000EC1342E3B014C016CE10E940B06482F71
:100E50004F776CE1C4010E942906BB24B39442E0A1
:100E6000B41691F083E0B816E1F091E0B912FBC03E
:100E700083E989833320D1F081E0F30190819530BB
:100E800008F480E0D12C17C085E98983332081F0F4
:100E900081E0F3019081983008F480E0A3E0DA2E3D
:100EA0000AC087E98983F6E0DF2E04C0D12C02C096
:100EB000E3E0DE2E80E0532DF8EFDF9E500D11248D
:100EC00057FD50E0882321F098E89B8343E001C060
:100ED00042E021E0952F977009F420E0952F959539
:100EE00095959595290F21F4882311F1585F20C01D
:100EF000811102C094E001C093E0291708F4922FF9
:100F000020E030E06D2D70E0E42FE20FA1E0B0E0D2
:100F1000AC0FBD1FAE0FB11DF901E60FF71FE60DB7
:100F2000F71DE181EC932F5F3F4F291768F3DCCF6A
:100F300073E0272E5032FCF040E74A839C818B817E
:100F400089279D8189279E8189278F839E01285F1C
:100F50003F4F47E0BE016F5F7F4FC4015D870E9436
:100F6000B8065D858111CBC01B862A86CE01079607
:100F70002C0179E01EC0952F97709B87252F259512
:100F80002595259582E0820F392FE0E18E9F300D67
:100F900011243A8371E0911101C070E0780F44246C
:100FA0004394512C4C0E5D1E480E511C87E0821B51
:100FB0008A87CB844C2D4295407F4C0D6AE1C40159
:100FC0005D877C870E942906A12CCE010B967C01AF
:100FD0008E01065F1F4F92017C85472FBE016F5F18
:100FE0007F4FC4010E946F0A5D85823091F56CE1EC
:100FF000C4010E940B065D8585FD33C08F7109F425
:1010000080E290E0252F052E000C330B28173907BE
:1010100054F501979C012770332743E095958795F8
:101020004A95E1F78F5F91E02115310509F490E0D1
:10103000890FE1E0F0E0EC0FFD1FE80FF11D81E00A
:1010400090E001C0880F2A95EAF79081892B808370
:1010500071CF811154C0503244F450E26DCF86E01C
:101060004EC082E04CC085E04AC08B81883809F0D0
:1010700043C033E023E080E090E06D2D70E0FC01A0
:10108000E60FF71FE60DF71D432F480FA1E0B0E074
:10109000AC0FBD1FA40FB11D4C9141830196821767
:1010A00070F38A85833021F58B85811121C09E01E3
:1010B0002D5F3F4F41E0B201C4010E94B80681118B
:1010C0001EC09B81F2018181981314C09C81828192
:1010D000981310C0808182FF02C0B394C0CEF30188
:1010E00083878B2D880FB80EB394B08280E007C041
:1010F00081E005C087E003C032E024E0BCCF2D963C
:101100000FB6F894DEBF0FBECDBFDF91CF911F9118
:101110000F91FF90EF90DF90CF90BF90AF909F9096
:101120008F907F906F905F904F903F902F90089599
:101130000C948C100C94841061E085E00E941005E2
:1011400061E087E00E94100561E086E00E941005E2
:1011500068EC70E080E090E00E947C0560E087E051
:101160000E94100568EC70E080E090E00E947C0531
:1011700061E087E00E94100568EC70E080E090E09C
:101180000E947C0560E087E00E94100568EC70E03A
:1011900080E090E00E947C0561E087E00E941005FD
:1011A00068EC70E080E090E00E947C0560E087E001
:1011B0000E94100568EC70E080E090E00C947C05E3
:1011C000EF92FF920F931F93CF93DF93880F991F96
:1011D000880F991F8C010E5F1F4F3FE4E32E31E013
:1011E000F32EEC012696C8010E949A08F70181931C
:1011F0007F010F5F1F4F0C171D07A9F7DF91CF91DC
:101200001F910F91FF90EF90089561E087E00E9499
:10121000100560E086E00E94100561E085E00E9414
:10122000100568EC70E080E090E00E947C0561E0D1
:1012300087E00E94100561E086E00E94100560E0F2
:1012400085E00E94100568EC70E080E090E00E946C
:101250007C0560E087E00E94100561E086E00E9466
:10126000100561E085E00E94100568EC70E080E008
:1012700090E00C947C05AF92CF92EF92FF920F9387
:101280001F93CF93DF9300D000D0CDB7DEB784EFAC
:1012900091E00E945006811103C080E090E046C0BA
:1012A00084EF91E00E94D9048823B9F38BEB95E099
:1012B0000E94D60987EFE82E81E0F82E03E511E0C1
:1012C000F70161917F01F80161938F0170E080E087
:1012D00090E040E10E94E409F1E007351F0781F743
:1012E0008CE391E00E94250A80E589831A829E01A1
:1012F0002D5F3F4F42E0BE016F5F7F4F84EF91E073
:101300000E94B806811110C0A12CC12CE12CF12C37
:1013100000E010E020E030E044E0BE016F5F7F4F6E
:1013200084EF91E00E946F0A81E090E00F900F90AF
:101330000F900F90DF91CF911F910F91FF90EF9041
:10134000CF90AF900895009769F0FC0101900020C4
:10135000E9F73197AF01481B590BBC0187E591E0D4
:101360000C94270380E090E008950F931F93CF9390
:10137000DF938C01C0E0D0E0F801EC0FFD1F649119
:10138000662371F0E0915701F09158010190F081CE
:10139000E02D87E591E00995892B11F02196ECCF9E
:1013A000CE01DF91CF911F910F910895CF93DF93DD
:1013B0000E94B509EC018AE391E00E94A3098C0F19
:1013C0009D1FDF91CF9108958F929F92AF92BF9210
:1013D0000F931F93CF93DF93CDB7DEB7A1970FB6CF
:1013E000F894DEBF0FBECDBF19A2423008F44AE028
:1013F0008E010F5D1F4F842E912CA12CB12CA501C5
:1014000094010E949A10E62FB901CA0101501109F6
:10141000EA3014F4E05D01C0E95CD801EC93232BC1
:10142000242B252B61F7C8010E94A309A1960FB6B2
:10143000F894DEBF0FBECDBFDF91CF911F910F910A
:10144000BF90AF909F908F900895CF93DF930E94AD
:10145000A309EC018AE391E00E94A3098C0F9D1F70
:10146000DF91CF910895CF92DF92EF92FF920F9389
:101470001F93CF93DF9300D0CDB7DEB78C01F62E4C
:10148000FC018289938949835A830E94080660E09F
:10149000F80186850E94100582E10E9401064981BB
:1014A000E42EC42E5A81D52E8C2D8E198F1530F432
:1014B000F60181916F010E940106F6CF61E0F8010B
:1014C00086850E9410050F900F90DF91CF911F919C
:1014D0000F91FF90EF90DF90CF900C9400064F9209
:1014E0005F926F927F928F929F92AF92BF92CF92B4
:1014F000DF92EF92FF920F931F93CF93DF9300D071
:10150000CDB7DEB74C012B01D42E3901E114F10423
:1015100019F0F701408101C040E0B42EF0E1CF9E08
:10152000B00C112440E062E0C4010E9429064FE79C
:1015300068E0C4010E94290640E864E1C4010E94F9
:101540002906A2016D2DC4010E94330A4B2D6AE1C8
:10155000C4010E9429064CE062E0C4010E942906F1
:101560006AE1C4010E940B06482F40686AE1C40189
:101570000E94290680ED482E87E0582E68E0C401BD
:101580000E940B06982F907341F480FD04C081E007
:10159000481A510899F783E0A1C06CE0C4010E9489
:1015A0000B06D82E837109F098C06114710409F4F8
:1015B0005AC00115110509F456C064E1C4010E9426
:1015C0000B06B82EF80180818B1508F480C0B0821C
:1015D000BB20F1F1F401828993890E94080660E042
:1015E000F40186850E94100582E90E940106CC2044
:1015F000A1F08FEF90E02C0101C0440CCA94EAF7EF
:1016000082E90E94010684214094F30190814922DD
:1016100084298083CC24C39401C0C12CBA944C2C5F
:10162000512C460C571CCB1438F482E90E94010659
:10163000F2018083C394F3CF80E00E940106F2019F
:10164000808361E0F40186850E9410050E940006F7
:1016500068E1C4010E940B068770E114F10421F0D7
:10166000F701808301C080E0D3FC33C061147104B2
:1016700091F10115110579F1AA2069F1F801408174
:10168000413019F4843019F420C0423010F487E05E
:1016900025C08111FCCF42509E012F5F3F4FB30107
:1016A000C4010E94B806811119C0F8018081680E3A
:1016B000711CF3013297908189819813E8CF31969C
:1016C00090818A819813E3CF06C08FEF07C084E032
:1016D00005C082E003C080E001C081E00F900F9060
:1016E000DF91CF911F910F91FF90EF90DF90CF90FE
:1016F000BF90AF909F908F907F906F905F904F9032
:101700000895282F80915301882319F081E0809358
:10171000080280910802A3E5B1E0E22FF92F2D9194
:101720009191291380E091E0A735B907C1F7809323
:10173000080208950F931F93CF93DF9380E090E00A
:101740000E949A08082F10E0C1E0D0E00C171D0796
:101750005CF0CE010E94E0088FE491E00E94810BD2
:10176000811103C02196F2CF80E0DF91CF911F91CC
:101770000F910895789484B5826084BD84B58160AA
:1017800084BD85B5826085BD85B5816085BD80914C
:101790006E00816080936E001092810080918100C4
:1017A00082608093810080918100816080938100BC
:1017B000809180008160809380008091B10084607E
:1017C0008093B1008091B00081608093B0008091DF
:1017D0007A00846080937A0080917A00826080939E
:1017E0007A0080917A00816080937A0080917A00FB
:1017F000806880937A001092C10061E087E00E94C7
:10180000400561E086E00E94400561E085E00E94BD
:10181000400562E083E00E94400561E084E00E94B0
:10182000400561E084E00E94100561E087E00E94CD
:10183000100561E086E00E94100561E085E00E94ED
:101840001005E0916701F091680182E08083E091EA
:101850006301F09164011082E0916501F0916601ED
:101860008FEC808310926F01E0916B01F0916C011D
:1018700086E08083E0916901F0916A018081806156
:101880008083E0916901F0916A01808188608083A2
:10189000E0916901F0916A01808180688083E09124
:1018A0006901F0916A0180818F7D80831FB7F89470
:1018B00080913E01811127C0E0E9F0E08491ECE7DE
:1018C000F0E09491E82FF0E0EE0FFF1FE859FF4F92
:1018D000A591B491EC91E92321F461E08AE00E94A2
:1018E000100561E08AE00E9440058CB580618CBDE6
:1018F0008CB580648CBD61E08DE00E94400561E0A4
:101900008BE00E94400580913E018F5F80933E01F5
:101910001FBF61E0809102020E94400561E080915A
:1019200002020E941005809103028F3F09F451C208
:1019300060E00E944005809103020E94E704892B29
:1019400009F047C261E0809103020E94400561E016
:10195000809103020E94100562E370E080E090E055
:101960000E947C050FC0115069F062E370E080E0D6
:1019700090E00E947C0562E084EF91E00E940B06FB
:1019800084FDF1CF40E064E284EF91E00E942906FB
:1019900040E066E284EF91E00E94290646E268E4B6
:1019A00084EF91E00E94290640E864E584EF91E02D
:1019B0000E94290649EA66E584EF91E00E94290623
:1019C00043E068E584EF91E00E94290648EE6AE56D
:1019D00084EF91E00E94290640E46AE284EF91E0FE
:1019E0000E9429064DE362E284EF91E00E942906FD
:1019F00068E284EF91E00E940B06982F9370933079
:101A000039F0482F436068E284EF91E00E94290694
:101A100081EB92E00E94D6096EE684EF91E00E948D
:101A20000B06182F84E391E00E94B509612F70E046
:101A300080E090E040E10E94E409113919F48CE261
:101A400091E007C0123919F484E291E002C08FEFEF
:101A500090E00E94B5098CE391E00E94250A1150A4
:101A60001E3F48F08CEB90E00E94D6098AE990E096
:101A70000E94D609FFCF83E00E94E704892B09F07A
:101A800066C060E087E00E9410058DE992E00E9448
:101A9000D6098FE792E00E94D6098AE492E00E947C
:101AA000D60968E97AE380E090E00E947C0583E053
:101AB0000E94E704892B09F042C083E392E00E9470
:101AC000D60900E010E0C8010E949A08882321F09E
:101AD00060E0C8010E9498080F5F1F4F011584E065
:101AE000180789F789E192E00E94D60961E087E052
:101AF0000E94100568EC70E080E090E00E947C0598
:101B000060E087E00E94100568EC70E080E090E003
:101B10000E947C0561E087E00E94100568EC70E09F
:101B200080E090E00E947C0560E087E00E94100564
:101B300068EC70E080E090E00E947C0504C088E0E2
:101B400092E00E94D60961E087E00E94100581E0E2
:101B500090E00E949A088F3809F43FC081EF91E02D
:101B60000E94D6098CEC91E00E94D6090E943B09A4
:101B70008C01909345018093440160E085E00E94D0
:101B8000100568EC70E080E090E00E947C0561E068
:101B900085E00E94100568EC70E080E090E00E9413
:101BA0007C05012B19F363E5E62E61E0F62E02E0D9
:101BB00010E0F70161917F01C8010E9498080F5F52
:101BC0001F4F06301105A9F76FE881E090E00E94F1
:101BD000980888EB91E00E94D60984EA91E00E947F
:101BE000D60982E991E00E94D6095FE3E52E51E033
:101BF000F52E02E010E0C8010E949A08F7018193D7
:101C00007F01682F70E080E090E040E10E94E409ED
:101C10000F5F1F4F0630110571F78CE391E00E94B2
:101C2000250A8EE791E00E94D6098DE691E00E9498
:101C3000D60981E591E00E94D6090E9405090E941B
:101C40003B09909345018093440183E00E94E7049F
:101C5000892B49F560E087E00E94100561E086E08D
:101C60000E94100561E085E00E94100587EA95E07A
:101C70000E94D6098DE795E00E94D60960E177E2DF
:101C800080E090E00E947C0583E00E94E704892BBD
:101C900051F460E081E090E00E94980884E595E0CE
:101CA0000E94D609FFCF80914301882319F00E943A
:101CB000050910C060E085E00E94100561E087E042
:101CC0000E94100561E086E00E94100561E084E05A
:101CD0000E9410058091440190914501892B09F4DF
:101CE000AECF809143018823B1F08FE391E00E9451
:101CF000810B882309F475C080E495E00E94D60921
:101D00008BE295E00E94D6098DE095E00E94D6090D
:101D1000109243015BC08FE391E00E94810B882306
:101D200061F181E0809343018CE394E00E94D60945
:101D300080E090E00E949A08182F84E394E00E94CB
:101D4000B509612F70E080E090E04AE00E94E4096C
:101D50008FE194E00E94B5098CE391E00E94250A8E
:101D600088EF93E00E94D6098CEC93E00E94D6099C
:101D70008EEA93E00E94D60929C00E949A0B88231C
:101D800009F475C186E993E00E94D60961E085E017
:101D90000E94100561E087E00E94100560E086E087
:101DA0000E94100560E084E00E9410056CE271E082
:101DB00080E090E00E947C0561E084E00E941005D4
:101DC00068EE73E080E090E00E947C050E94810450
:101DD00036CF4FE062E084EF91E00E94290613E0E5
:101DE000C4CD0E949A0B882309F4BEC08FEE94E004
:101DF0000E94D6090E949A0B811107C00E949C087C
:101E00008FEE92E00E94D609A8C080E090E00E9488
:101E10009A08E82EF12CCC24C394D12C8601EC1422
:101E2000FD046CF0C6010E94E0088FE491E00E947E
:101E3000810BFFEFCF1ADF0A882381F301C08E01E7
:101E40006801CC0CDD1CCC0CDD1CC701801B910B88
:101E5000EC01CC0FDD1FCC0FDD1FB7016150710904
:101E600080E090E00E949808760186E0E80EF11C80
:101E7000A12CB12CAC16BD067CF4C7010E949A08B7
:101E8000682FC70104970E9498089FEFA91AB90A02
:101E9000EFEFEE1AFE0AEECFCE01D7FF02C080E0D0
:101EA00090E0E12CF12CE6012296C80FD91F60E0EA
:101EB000CE018E0D9F1D0E949808FFEFEF1AFF0ABA
:101EC00084E0E816F10499F761E085E00E941005CE
:101ED00061E087E00E94100561E086E00E94100545
:101EE00068EC70E080E090E00E947C0560E085E0B6
:101EF0000E94100568EC70E080E090E00E947C0594
:101F000061E085E00E94100568EC70E080E090E000
:101F10000E947C0560E085E00E94100568EC70E09E
:101F200080E090E00E947C0561E085E00E94100561
:101F300068EC70E080E090E00E947C0560E085E065
:101F40000E94100568EC70E080E090E00E947C0543
:101F500085EC92E00E94D609E8018CE191E00E94B4
:101F6000250A88EC94E006CF85EA94E00E94D60921
:101F70000E949A0B81116EC080E090E00E949A0846
:101F8000682F70E08B01000F111F000F111F6F5F92
:101F90007F4F80E090E00E94980893E5C92E91E081
:101FA000D92E780196E0E90EF11C065F1F4FF6016D
:101FB00061916F01C7010E949808FFEFEF1AFF0AB5
:101FC000E016F106A1F761E085E00E94100561E0EE
:101FD00087E00E94100561E086E00E94100568EC31
:101FE00070E080E090E00E947C0560E086E00E9466
:101FF000100568EC70E080E090E00E947C0561E0F4
:1020000086E00E94100568EC70E080E090E00E949D
:102010007C0560E086E00E94100568EC70E080E0DE
:1020200090E00E947C0561E086E00E94100568EC6B
:1020300070E080E090E00E947C0560E086E00E9415
:10204000100568EC70E080E090E00E947C0586E27C
:1020500093E004C00E949C088CE493E00E94D6099F
:1020600087E894E00E94D60980E694E083CE83E876
:1020700093E00E94D60961E086E00E94100561E0CD
:1020800085E00E94100560E087E098CEE7E5F1E08A
:102090001382128288EE93E0A0E0B0E084839583FF
:1020A000A683B78384E091E09183808385EC90E000
:1020B0009587848784EC90E09787868780EC90E012
:1020C000918B808B81EC90E0938B828B82EC90E003
:1020D000958B848B86EC90E0978B868B118E128E7D
:1020E000138E148EE4EFF1E086E191E0918380831A
:1020F0008AE0868789E0878789E092E0918B808BF0
:1021000083E5828B138A0895F999FECF92BD81BD34
:10211000F89A992780B50895262FF999FECF1FBA0E
:1021200092BD81BD20BD0FB6F894FA9AF99A0FBE00
:1021300001960895A1E21A2EAA1BBB1BFD010DC03A
:10214000AA1FBB1FEE1FFF1FA217B307E407F50767
:1021500020F0A21BB30BE40BF50B661F771F881F43
:10216000991F1A9469F760957095809590959B01D9
:10217000AC01BD01CF010895EE0FFF1F0590F49152
:10218000E02D099481E090E0F8940C94C710F89445
:02219000FFCF7F
:1021920000000000BE0327035603050487036503FE
:1021A20079030000000004075006D9042D2D2D2DBF
:1021B2002D2D2D2D2D2D2D2D2D2D2D2D2D2D2D2D4D
:0E21C2002D2D2D2D2D2D2D2D2D000D0A000063
:00000001FF
